{
  "contractName": "Hi",
  "abi": [
    {
      "constant": true,
      "inputs": [],
      "name": "message",
      "outputs": [
        {
          "name": "",
          "type": "string"
        }
      ],
      "payable": false,
      "stateMutability": "view",
      "type": "function"
    },
    {
      "constant": false,
      "inputs": [],
      "name": "Hello",
      "outputs": [],
      "payable": false,
      "stateMutability": "nonpayable",
      "type": "function"
    }
  ],
  "bytecode": "0x608060405234801561001057600080fd5b50610302806100206000396000f30060806040526004361061004c576000357c0100000000000000000000000000000000000000000000000000000000900463ffffffff168063bcdfe0d514610051578063e21f37ce14610068575b600080fd5b34801561005d57600080fd5b506100666100f8565b005b34801561007457600080fd5b5061007d610193565b6040518080602001828103825283818151815260200191508051906020019080838360005b838110156100bd5780820151818401526020810190506100a2565b50505050905090810190601f1680156100ea5780820380516001836020036101000a031916815260200191505b509250505060405180910390f35b608060405190810160405280605481526020017f48656c6c6f2c20576f726c64203a2054686973206973206120536f6c6964697481526020017f7920536d61727420436f6e7472616374206f6e2074686520507269766174652081526020017f457468657265756d20426c6f636b636861696e2000000000000000000000000081525060009080519060200190610190929190610231565b50565b60008054600181600116156101000203166002900480601f0160208091040260200160405190810160405280929190818152602001828054600181600116156101000203166002900480156102295780601f106101fe57610100808354040283529160200191610229565b820191906000526020600020905b81548152906001019060200180831161020c57829003601f168201915b505050505081565b828054600181600116156101000203166002900490600052602060002090601f016020900481019282601f1061027257805160ff19168380011785556102a0565b828001600101855582156102a0579182015b8281111561029f578251825591602001919060010190610284565b5b5090506102ad91906102b1565b5090565b6102d391905b808211156102cf5760008160009055506001016102b7565b5090565b905600a165627a7a723058207d2390a2b17fd7e7935c294790c5eb96e92e8b41bbf9b0b7c85f4b520a5b77d60029",
  "source": "pragma solidity ^0.4.15;\r\ncontract Hi {\r\n   string public message;\r\n   function Hello() public {\r\n   message = \"Hello, World : This is a Solidity Smart Contract on the Private Ethereum Blockchain \";\r\n   }\r\n}\r\n",
  "sourcePath": "E:/Pblockchain/Truffle/contracts/Hello.sol",
  "compiler": {
    "name": "solc",
    "version": "0.4.25+commit.59dbf8f1.Emscripten.clang"
  },
  "schemaVersion": "3.0.16",
  "updatedAt": "2019-10-07T06:18:45.283Z",
  "devdoc": {
    "methods": {}
  },
  "userdoc": {
    "methods": {}
  }
}